{
  "contractName": "CrowdSensing",
  "abi": [
    {
      "inputs": [],
      "stateMutability": "payable",
      "type": "constructor",
      "payable": true
    },
    {
      "anonymous": false,
      "inputs": [
        {
          "indexed": false,
          "internalType": "uint256",
          "name": "id",
          "type": "uint256"
        },
        {
          "indexed": false,
          "internalType": "string",
          "name": "data",
          "type": "string"
        }
      ],
      "name": "DataAdded",
      "type": "event"
    },
    {
      "anonymous": false,
      "inputs": [
        {
          "indexed": false,
          "internalType": "uint256",
          "name": "id",
          "type": "uint256"
        },
        {
          "indexed": false,
          "internalType": "address",
          "name": "requester",
          "type": "address"
        },
        {
          "indexed": false,
          "internalType": "string",
          "name": "title",
          "type": "string"
        },
        {
          "indexed": false,
          "internalType": "string",
          "name": "description",
          "type": "string"
        },
        {
          "indexed": false,
          "internalType": "uint256",
          "name": "reward",
          "type": "uint256"
        },
        {
          "indexed": false,
          "internalType": "uint256",
          "name": "workersNum",
          "type": "uint256"
        }
      ],
      "name": "RequestAdded",
      "type": "event"
    },
    {
      "inputs": [],
      "name": "requestCount",
      "outputs": [
        {
          "internalType": "uint256",
          "name": "",
          "type": "uint256"
        }
      ],
      "stateMutability": "view",
      "type": "function",
      "constant": true
    },
    {
      "inputs": [
        {
          "internalType": "uint256",
          "name": "",
          "type": "uint256"
        }
      ],
      "name": "requests",
      "outputs": [
        {
          "internalType": "uint256",
          "name": "id",
          "type": "uint256"
        },
        {
          "internalType": "address",
          "name": "requester",
          "type": "address"
        },
        {
          "internalType": "string",
          "name": "title",
          "type": "string"
        },
        {
          "internalType": "string",
          "name": "description",
          "type": "string"
        },
        {
          "internalType": "uint256",
          "name": "reward",
          "type": "uint256"
        },
        {
          "internalType": "uint256",
          "name": "workersNum",
          "type": "uint256"
        }
      ],
      "stateMutability": "view",
      "type": "function",
      "constant": true
    },
    {
      "inputs": [],
      "name": "balanceOf",
      "outputs": [
        {
          "internalType": "uint256",
          "name": "",
          "type": "uint256"
        }
      ],
      "stateMutability": "view",
      "type": "function",
      "constant": true
    },
    {
      "inputs": [
        {
          "internalType": "address",
          "name": "_requester",
          "type": "address"
        },
        {
          "internalType": "string",
          "name": "_title",
          "type": "string"
        },
        {
          "internalType": "string",
          "name": "_description",
          "type": "string"
        },
        {
          "internalType": "uint256",
          "name": "_reward",
          "type": "uint256"
        },
        {
          "internalType": "uint256",
          "name": "_workersNum",
          "type": "uint256"
        },
        {
          "internalType": "bytes32",
          "name": "hash",
          "type": "bytes32"
        },
        {
          "internalType": "bytes",
          "name": "signature",
          "type": "bytes"
        }
      ],
      "name": "addRequest",
      "outputs": [],
      "stateMutability": "payable",
      "type": "function",
      "payable": true
    },
    {
      "inputs": [
        {
          "internalType": "address payable",
          "name": "_worker",
          "type": "address"
        },
        {
          "internalType": "uint256",
          "name": "_reward",
          "type": "uint256"
        },
        {
          "internalType": "uint256",
          "name": "_id",
          "type": "uint256"
        },
        {
          "internalType": "string",
          "name": "_data",
          "type": "string"
        },
        {
          "internalType": "bytes32",
          "name": "hash",
          "type": "bytes32"
        },
        {
          "internalType": "bytes",
          "name": "signature",
          "type": "bytes"
        }
      ],
      "name": "addData",
      "outputs": [],
      "stateMutability": "payable",
      "type": "function",
      "payable": true
    },
    {
      "inputs": [
        {
          "internalType": "uint256",
          "name": "_rId",
          "type": "uint256"
        }
      ],
      "name": "getDatas",
      "outputs": [
        {
          "internalType": "string[]",
          "name": "",
          "type": "string[]"
        }
      ],
      "stateMutability": "view",
      "type": "function",
      "constant": true
    }
  ],
  "bytecode": "0x6080604052600080556111b1806100176000396000f3fe6080604052600436106100555760003560e01c80635badbe4c1461005a578063722713f7146100855780637ca41012146100b057806381d12c58146100cc578063945959db1461010e578063e47d27b21461012a575b600080fd5b34801561006657600080fd5b5061006f610167565b60405161007c919061089d565b60405180910390f35b34801561009157600080fd5b5061009a61016d565b6040516100a7919061089d565b60405180910390f35b6100ca60048036038101906100c59190610b73565b610175565b005b3480156100d857600080fd5b506100f360048036038101906100ee9190610c69565b610323565b60405161010596959493929190610d2d565b60405180910390f35b61012860048036038101906101239190610dda565b61048f565b005b34801561013657600080fd5b50610151600480360381019061014c9190610c69565b61061f565b60405161015e9190610fab565b60405180910390f35b60005481565b600047905090565b6000610181838361070e565b90508773ffffffffffffffffffffffffffffffffffffffff168173ffffffffffffffffffffffffffffffffffffffff16146101bb57600080fd5b6000808154809291906101cd90610ffc565b919050555060005460016000805481526020019081526020016000206000018190555087600160008054815260200190815260200160002060010160006101000a81548173ffffffffffffffffffffffffffffffffffffffff021916908373ffffffffffffffffffffffffffffffffffffffff16021790555086600160008054815260200190815260200160002060020190805190602001906102719291906107e1565b50856001600080548152602001908152602001600020600301908051906020019061029d9291906107e1565b5084600160008054815260200190815260200160002060040181905550836001600080548152602001908152602001600020600501819055507fa5dd1ea19cd2e5ab7cd4fe90a3fff635766e308d198f1a5ebbf0ed618962ee9c600054898989898960405161031196959493929190610d2d565b60405180910390a15050505050505050565b60016020528060005260406000206000915090508060000154908060010160009054906101000a900473ffffffffffffffffffffffffffffffffffffffff169080600201805461037290611073565b80601f016020809104026020016040519081016040528092919081815260200182805461039e90611073565b80156103eb5780601f106103c0576101008083540402835291602001916103eb565b820191906000526020600020905b8154815290600101906020018083116103ce57829003601f168201915b50505050509080600301805461040090611073565b80601f016020809104026020016040519081016040528092919081815260200182805461042c90611073565b80156104795780601f1061044e57610100808354040283529160200191610479565b820191906000526020600020905b81548152906001019060200180831161045c57829003601f168201915b5050505050908060040154908060050154905086565b600061049b838361070e565b90506001600086815260200190815260200160002060010160009054906101000a900473ffffffffffffffffffffffffffffffffffffffff1673ffffffffffffffffffffffffffffffffffffffff168173ffffffffffffffffffffffffffffffffffffffff161461050b57600080fd5b600160008681526020019081526020016000206005015460016000878152602001908152602001600020600601805490501061054657600080fd5b60016000868152602001908152602001600020600601849080600181540180825580915050600190039060005260206000200160009091909190915090805190602001906105959291906107e1565b508673ffffffffffffffffffffffffffffffffffffffff166108fc879081150290604051600060405180830381858888f193505050501580156105dc573d6000803e3d6000fd5b507fb35d322946378a6988952f6ec334d7458ce97c42fbb3ecfc1e00a5062c553a0a858560405161060e9291906110a4565b60405180910390a150505050505050565b606060016000838152602001908152602001600020600601805480602002602001604051908101604052809291908181526020016000905b8282101561070357838290600052602060002001805461067690611073565b80601f01602080910402602001604051908101604052809291908181526020018280546106a290611073565b80156106ef5780601f106106c4576101008083540402835291602001916106ef565b820191906000526020600020905b8154815290600101906020018083116106d257829003601f168201915b505050505081526020019060010190610657565b505050509050919050565b600080600080604185511461072957600093505050506107db565b6020850151925060408501519150606085015160001a9050601b8160ff16101561075d57601b8161075a91906110e1565b90505b601b8160ff16141580156107755750601c8160ff1614155b1561078657600093505050506107db565b600186828585604051600081526020016040526040516107a99493929190611136565b6020604051602081039080840390855afa1580156107cb573d6000803e3d6000fd5b5050506020604051035193505050505b92915050565b8280546107ed90611073565b90600052602060002090601f01602090048101928261080f5760008555610856565b82601f1061082857805160ff1916838001178555610856565b82800160010185558215610856579182015b8281111561085557825182559160200191906001019061083a565b5b5090506108639190610867565b5090565b5b80821115610880576000816000905550600101610868565b5090565b6000819050919050565b61089781610884565b82525050565b60006020820190506108b2600083018461088e565b92915050565b6000604051905090565b600080fd5b600080fd5b600073ffffffffffffffffffffffffffffffffffffffff82169050919050565b60006108f7826108cc565b9050919050565b610907816108ec565b811461091257600080fd5b50565b600081359050610924816108fe565b92915050565b600080fd5b600080fd5b6000601f19601f8301169050919050565b7f4e487b7100000000000000000000000000000000000000000000000000000000600052604160045260246000fd5b61097d82610934565b810181811067ffffffffffffffff8211171561099c5761099b610945565b5b80604052505050565b60006109af6108b8565b90506109bb8282610974565b919050565b600067ffffffffffffffff8211156109db576109da610945565b5b6109e482610934565b9050602081019050919050565b82818337600083830152505050565b6000610a13610a0e846109c0565b6109a5565b905082815260208101848484011115610a2f57610a2e61092f565b5b610a3a8482856109f1565b509392505050565b600082601f830112610a5757610a5661092a565b5b8135610a67848260208601610a00565b91505092915050565b610a7981610884565b8114610a8457600080fd5b50565b600081359050610a9681610a70565b92915050565b6000819050919050565b610aaf81610a9c565b8114610aba57600080fd5b50565b600081359050610acc81610aa6565b92915050565b600067ffffffffffffffff821115610aed57610aec610945565b5b610af682610934565b9050602081019050919050565b6000610b16610b1184610ad2565b6109a5565b905082815260208101848484011115610b3257610b3161092f565b5b610b3d8482856109f1565b509392505050565b600082601f830112610b5a57610b5961092a565b5b8135610b6a848260208601610b03565b91505092915050565b600080600080600080600060e0888a031215610b9257610b916108c2565b5b6000610ba08a828b01610915565b975050602088013567ffffffffffffffff811115610bc157610bc06108c7565b5b610bcd8a828b01610a42565b965050604088013567ffffffffffffffff811115610bee57610bed6108c7565b5b610bfa8a828b01610a42565b9550506060610c0b8a828b01610a87565b9450506080610c1c8a828b01610a87565b93505060a0610c2d8a828b01610abd565b92505060c088013567ffffffffffffffff811115610c4e57610c4d6108c7565b5b610c5a8a828b01610b45565b91505092959891949750929550565b600060208284031215610c7f57610c7e6108c2565b5b6000610c8d84828501610a87565b91505092915050565b610c9f816108ec565b82525050565b600081519050919050565b600082825260208201905092915050565b60005b83811015610cdf578082015181840152602081019050610cc4565b83811115610cee576000848401525b50505050565b6000610cff82610ca5565b610d098185610cb0565b9350610d19818560208601610cc1565b610d2281610934565b840191505092915050565b600060c082019050610d42600083018961088e565b610d4f6020830188610c96565b8181036040830152610d618187610cf4565b90508181036060830152610d758186610cf4565b9050610d84608083018561088e565b610d9160a083018461088e565b979650505050505050565b6000610da7826108cc565b9050919050565b610db781610d9c565b8114610dc257600080fd5b50565b600081359050610dd481610dae565b92915050565b60008060008060008060c08789031215610df757610df66108c2565b5b6000610e0589828a01610dc5565b9650506020610e1689828a01610a87565b9550506040610e2789828a01610a87565b945050606087013567ffffffffffffffff811115610e4857610e476108c7565b5b610e5489828a01610a42565b9350506080610e6589828a01610abd565b92505060a087013567ffffffffffffffff811115610e8657610e856108c7565b5b610e9289828a01610b45565b9150509295509295509295565b600081519050919050565b600082825260208201905092915050565b6000819050602082019050919050565b600082825260208201905092915050565b6000610ee782610ca5565b610ef18185610ecb565b9350610f01818560208601610cc1565b610f0a81610934565b840191505092915050565b6000610f218383610edc565b905092915050565b6000602082019050919050565b6000610f4182610e9f565b610f4b8185610eaa565b935083602082028501610f5d85610ebb565b8060005b85811015610f995784840389528151610f7a8582610f15565b9450610f8583610f29565b925060208a01995050600181019050610f61565b50829750879550505050505092915050565b60006020820190508181036000830152610fc58184610f36565b905092915050565b7f4e487b7100000000000000000000000000000000000000000000000000000000600052601160045260246000fd5b600061100782610884565b91507fffffffffffffffffffffffffffffffffffffffffffffffffffffffffffffffff820361103957611038610fcd565b5b600182019050919050565b7f4e487b7100000000000000000000000000000000000000000000000000000000600052602260045260246000fd5b6000600282049050600182168061108b57607f821691505b60208210810361109e5761109d611044565b5b50919050565b60006040820190506110b9600083018561088e565b81810360208301526110cb8184610cf4565b90509392505050565b600060ff82169050919050565b60006110ec826110d4565b91506110f7836110d4565b92508260ff0382111561110d5761110c610fcd565b5b828201905092915050565b61112181610a9c565b82525050565b611130816110d4565b82525050565b600060808201905061114b6000830187611118565b6111586020830186611127565b6111656040830185611118565b6111726060830184611118565b9594505050505056fea2646970667358221220b0209860f95156243cf50c1f6bc0291c1f3202c7a2416ca6ea9e33922c2fe7e564736f6c634300080d0033",
  "immutableReferences": {},
  "source": "// SPDX-License-Identifier: MIT\npragma solidity >=0.4.22 <0.9.0;\n\ncontract CrowdSensing {\n    uint256 public requestCount = 0;\n\n    struct Request {\n        uint256 id;\n        address requester;\n        string title;\n        string description;\n        uint256 reward;\n        uint256 workersNum;\n        string[] datas;\n    }\n\n    mapping(uint256 => Request) public requests;\n\n    event RequestAdded(\n        uint256 id,\n        address requester,\n        string title,\n        string description,\n        uint256 reward,\n        uint256 workersNum\n    );\n\n    event DataAdded(uint256 id, string data);\n\n    // ====================================\n\n    constructor() public payable {}\n\n    function recover(bytes32 hash, bytes memory signature)\n        private\n        pure\n        returns (address)\n    {\n        bytes32 r;\n        bytes32 s;\n        uint8 v;\n\n        // Check the signature length\n        if (signature.length != 65) {\n            return (address(0));\n        }\n\n        // Divide the signature in r, s and v variables\n        // ecrecover takes the signature parameters, and the only way to get them\n        // currently is to use assembly.\n        // solium-disable-next-line security/no-inline-assembly\n        assembly {\n            r := mload(add(signature, 0x20))\n            s := mload(add(signature, 0x40))\n            v := byte(0, mload(add(signature, 0x60)))\n        }\n\n        // Version of signature should be 27 or 28, but 0 and 1 are also possible versions\n        if (v < 27) {\n            v += 27;\n        }\n\n        // If the version is correct return the signer address\n        if (v != 27 && v != 28) {\n            return (address(0));\n        } else {\n            // solium-disable-next-line arg-overflow\n            return ecrecover(hash, v, r, s);\n        }\n    }\n\n    // ====================================\n\n    function balanceOf() external view returns (uint256) {\n        return address(this).balance;\n    }\n\n    function addRequest(\n        address _requester,\n        string memory _title,\n        string memory _description,\n        uint256 _reward,\n        uint256 _workersNum,\n        bytes32 hash,\n        bytes memory signature\n    ) public payable {\n        address _signer = recover(hash, signature);\n        require(_signer == _requester);\n        requestCount++;\n\n        requests[requestCount].id = requestCount;\n        requests[requestCount].requester = _requester;\n        requests[requestCount].title = _title;\n        requests[requestCount].description = _description;\n        requests[requestCount].reward = _reward;\n        requests[requestCount].workersNum = _workersNum;\n\n        emit RequestAdded(\n            requestCount,\n            _requester,\n            _title,\n            _description,\n            _reward,\n            _workersNum\n        );\n    }\n\n    function addData(\n        address payable _worker,\n        uint256 _reward,\n        uint256 _id,\n        string memory _data,\n        bytes32 hash,\n        bytes memory signature\n    ) public payable {\n        address _signer = recover(hash, signature);\n        require(_signer == requests[_id].requester);\n\n        require(requests[_id].datas.length < requests[_id].workersNum);\n\n        requests[_id].datas.push(_data);\n\n        _worker.transfer(_reward);\n\n        emit DataAdded(_id, _data);\n    }\n\n    function getDatas(uint256 _rId) public view returns (string[] memory) {\n        return (requests[_rId].datas);\n    }\n}\n",
  "sourcePath": "/Users/rishabhniranjan/Desktop/College/Temp/contracts/CrowdSensing.sol",
  "compiler": {
    "name": "solc",
    "version": "0.8.13+commit.abaa5c0e.Emscripten.clang"
  },
  "schemaVersion": "3.4.7",
  "updatedAt": "2022-05-02T18:07:11.497Z",
  "networkType": "ethereum",
  "devdoc": {
    "kind": "dev",
    "methods": {},
    "version": 1
  },
  "userdoc": {
    "kind": "user",
    "methods": {},
    "version": 1
  }
}